:040000004BEF25F0AD
:1044F80001C06DF003C06EF0120001C077F002C079
:1045080078F01200FF07FFFFA08001010101949CD1
:10451800330EAF6EAC8AAB8E1200016E00D0ACA227
:10452800FED701C0ADFF1200036E8A9E8A9C03501D
:10453800FDEC22F08A8C1200036E8A8E8A9C03504E
:10454800FDEC22F08A8C12008B9A949AD00E016EA0
:10455800CA0EE82EFED7012EFCD795849582949E2C
:104568008B9E1200036E0350D8A405D0000E026E75
:10457800010E016E04D003C001F0026A00D001C030
:104588007DF01200036E000E026E3A0E036006D034
:104598002F0E036403D0010E026E00D002C001F09A
:1045A800013000D012008B9A949AD00E026ECA0E77
:1045B800E82EFED7022EFCD7000EC7B4010E84ECFD
:1045C80023F0070E766E7568120001500302F3CFD0
:1045D80005F0F4CF06F001500402F350062602500D
:1045E8000302F350062605C001F006C002F000D011
:1045F8001200016E800E026E0DD0015002140009E7
:10460800D8B402D08A8A01D08A9A8A868A96D890A3
:10461800023200D00250D8A4F0D71200000E096E62
:10462800000E086E000E0B6E000E0A6E7AC00CF0BB
:104638000D6A79C00EF00F6A1BC010F01CC011F093
:10464800F0EC2BF012004CC048F04DC049F04EC0C1
:104658004AF04FC04BF0E1EC25F0E50E486E7F0EB6
:10466800496E4EC04AF04FC04BF0E1EC25F0120005
:1046780001C007F002C008F009D007C0D9FF08C080
:10468800DAFF03C0DFFF074A082A00D00506D8A0D2
:1046980006060528F2E10628D8A4EFD71200066E10
:1046A800410E056E8C980550AEEC25F00650AEEC28
:1046B80025F00650010DB90EF324D96E000EF42032
:1046C800DA6EFF0EAEEC25F0DF6E8C88120009D092
:1046D8000B0E056E620EE82EFED7052EFCD700D015
:1046E80000D00106000E025A035A045A0128F0E1CC
:1046F8000228EEE10328ECE10428D8A4E9D7120047
:10470800016E020E0118D8A408D09268070E941200
:1047180095869382938493800CD00104D8A409D001
:1047280093908A8095968C8693928A8293948A84B1
:0447380000D012009B
:10473D00534D4E5231323346343536453738394480
:10474D0041304243F17FF37FE97FF57FF77FF97FBA
:10475D00FB7F8D7FEB7FEE7F864866619C66826C6A
:10476D008C69AA50EA54310000700ED3129B8CA4B0
:10477D00EC26F000D06C50020DA80EF324D96E007B
:10478D000EF420DA6E01D8F6D70500FA6EDE50FD74
:10479D006EDE50FE6EF850FF6EFA501200EBD70031
:1047AD00EF00F0076E400E066E8C980650AEEC25AD
:1047BD00F00750AEEC25F00750010DB90EF324D9DA
:1047CD006E000EF420DA6E05C0DFFF0750010DB943
:1047DD000EF324D96E000EF420DA6EDF50AEEC2508
:1047ED00F08C881200000E926EF80E94168A8001DD
:1047FD00C089FF1A0EE82EFED700D08A90F80E8BD6
:10480D00160250070B8B121A0EE82EFED700D0039E
:10481D00C089FF8C961A0EE82EFED700D08A941A06
:10482D000EE82EFED700D08A848C8612000A500B1B
:10483D0010D8B41DD0010E0C6E05D0D8900A360BD1
:10484D00360C2A00D00BBE02D0F8D700D00A500883
:10485D005C0B500958D8A005D00A50085E0B5009C2
:10486D005A00D0D8900B320A320C2EF0D700D00857
:10487D00C008F009C009F01200000E1C6E000E1BDE
:10488D006E12EC23F0000E026E2D0E016E000E0462
:10489D006E400E036E7CEC22F0070E026EE00E01F0
:1048AD006E81EC22F0010EB6EC22F0D20E4C6E7F32
:1048BD000E4D6E400E4E6E590E4F6E27EC23F001CD
:1048CD000E6C6E1200076E2A0E98EC22F0000EA0F0
:1048DD00EC22F007506B24A0EC22F0000EA0EC228D
:1048ED00F005506B24A0EC22F02B0E98EC22F0007A
:1048FD000EA0EC22F004507024A0EC22F0000EA0CB
:10490D00EC22F006507024A0EC22F02C0E98EC2234
:10491D00F01200000E926EF80E94168A8001C08976
:10492D00FF1A0EE82EFED700D08A90F80E8B1602D5
:10493D0050070B8B121A0EE82EFED700D092681A74
:10494D000EE82EFED700D08C961A0EE82EFED7005C
:10495D00D08A921A0EE82EFED700D080CF03F08AAF
:10496D00828C86035000D01200000E066E000E05DC
:10497D006E03500410D8B421D0010E076E05D0D8A7
:10498D009003360436072A00D004BE02D0F8D700B3
:10499D00D0D890053606360350015C04500258D825
:1049AD00A006D00350015E0450025A058000D0D8F5
:1049BD009004320332072EECD700D005C001F0066B
:1049CD00C002F01200000E0C6E000E0B6E22D00B0A
:1049DD00500424016E0C500520026E0B5006240964
:1049ED006E0C5007200A6E09C0F6FF0AC0F7FFF8DB
:1049FD006A050EF76403D00800F55005D0F6CFE92F
:104A0D00FFF7CFEAFFEF50036EF9EC23F00B4A0CE2
:104A1D002A00D00850096E0A6A09500B5C0A500C26
:104A2D0058D8A0D5D71200046E360E98EC22F0049B
:104A3D0050030B7B6E1AD0C80EA0EC22F0800E7ABC
:104A4D006E0AD0A80EA0EC22F0A00E7A6E0BD00844
:104A5D000EA0EC22F0F3D7A00E06D0680EA0EC222B
:104A6D00F0A00E7A6E800E796E0ED07B50000AD8B3
:104A7D00B4E2D7010AD8B4E5D7030AD8B4E8D70110
:104A8D000AD8B4EBD700D0120000EEB9F0220EEE2A
:104A9D006AE806FDE100EE65F0100EEE6AE806FD2F
:104AAD00E13D0EF66E470EF76E000EF86E00EE80CD
:104ABD00F010EE39F00900F5CFEEFFE550E150FAB8
:104ACD00E10C0EF66E450EF76E000EF86E00EE75EB
:104ADD00F010EE0AF00900F5CFEEFFE550E150FAC7
:104AED00E1000EF86E0001BBEF23F009BE2FD07A66
:104AFD00500E6E0F6A0E50085C0950800A106E0F32
:104B0D0050800A1058D8A00BBE21D079500E6E0FD0
:104B1D006A0E500A5C0B50800A106E0F50800A10FE
:104B2D0058D8B014D001D012D00AC004F00828050E
:104B3D006E0A28066E085069EC24F08A8E8A9C0D48
:104B4D0050FDEC22F00C50FDEC22F08A8C1200028C
:104B5D006E000E036E8C9A800E046E26D0025004E9
:104B6D00140009D8B403D0016A012A01D0016A01E9
:104B7D003A014601468C500118BF0B01188C6E8C02
:104B8D008AD890033683AE02D0010E01D0000E03F9
:104B9D0012020EE82EFED700D08C9A020EE82EFEE1
:104BAD00D700D0D890043200D00450D8A4D7D70362
:104BBD005000D012001FD001D81AD00500FA6E4A4D
:104BCD0050FD6E4B50FE6EF850FF6EFA5048C0F619
:104BDD00FF49C0F7FFF86A050EF76403D00800F52A
:104BED005005D0F6CFE9FFF7CFEAFFEF501200489E
:104BFD004A492A00D048C0F6FF49C0F7FFF86A05B8
:104C0D000EF76403D00800F55005D0F6CFE9FFF795
:104C1D00CFEAFFEF500009D8A4CED71200939C8A9B
:104C2D008C939E8A8E939A8A9A93968A9693988A53
:104C3D00888A9C320E016E000E026E000E036E000D
:104C4D000E046E6BEC23F08A98320E016E000E028C
:104C5D006E000E036E000E046E6BEC23F08A88322C
:104C6D000E016E000E026E000E036E000E046E6BD2
:104C7D00EC23F0EB0E066E7E0E076E96EC27F071B0
:104C8D000E066E7F0E076E96EC27F0260E066E7FD3
:104C9D000E076E96EC27F0360E98EC22F0C80EA09B
:104CAD00EC22F01200000E066E04AE07D0036C0469
:104CBD001ED8B0042A010E066E00D002AE07D00138
:104CCD006C021ED8B0022A010E061A00D0000E0882
:104CDD006E000E076E03500410D8B421D0010E05DE
:104CED006E05D0D89003360436052A00D004BE02D6
:104CFD00D0F8D700D0D890073608360350015C04A1
:104D0D00500258D8A006D00350015E0450025A0735
:104D1D008000D0D89004320332052EECD700D00697
:104D2D0050D8B405D0076C081ED8B0082A00D0079B
:104D3D00C001F008C002F000D01200A8EC22F08BE8
:104D4D00EC22F0D00E506ECA0EE82EFED7502EFC7F
:104D5D00D70F0EC112070EB412010E84EC23F08E84
:104D6D00EC29F015EC26F0010E1AEC25F08F0E4C07
:104D7D006E7F0E4D6E220E4E6E450E4F6E27EC233E
:104D8D00F0FF0E1C6E1B6812EC23F0000E126E1855
:104D9D000E116E000E146E320E136E550E156E7DC5
:104DAD000E166E000E186E700E176E000E1A6E1D1A
:104DBD000E196E000E1C6E1F0E1B6EF0EC2AF0D03D
:104DCD000E016E070E026E000E036E000E046E6B6A
:104DDD00EC23F01200020E5018D8A413D0530E0D70
:104DED006E000E0E6ED80E0F6E7F0E106E4CC01133
:104DFD00F04DC012F04EC013F04FC014F0E4EC3182
:104E0D00F02ED0040E5018D8A413D0530E0D6E00F2
:104E1D000E0E6EDD0E0F6E7F0E106E4CC011F04D2E
:104E2D00C012F04EC013F04FC014F0E4EC31F01787
:104E3D00D00A0E5018D8A413D0530E0D6E000E0EBE
:104E4D006EE20E0F6E7F0E106E4CC011F04DC01243
:104E5D00F04EC013F04FC014F0E4EC31F000D0531D
:104E6D000E486E000E496E51C04AF052C04BF0E133
:104E7D00EC25F012004C6E000E1C6E000E1B6E1217
:104E8D00EC23F0000E026E1F0E016E81EC22F0007D
:104E9D000E026E1E0E016E000E046E280E036E7C49
:104EAD00EC22F0C40E486E7F0E496E400E4A6E59CC
:104EBD000E4B6EE1EC25F0000E026E190E016E0028
:104ECD000E046E3C0E036E7CEC22F016D0B30E4831
:104EDD006E7F0E496E400E4A6E590E4B6EE1EC25FB
:104EED00F013D09D0E486E7F0E496E400E4A6E59DE
:104EFD000E4B6EE1EC25F008D04C50010AD8B4E60B
:104F0D00D7030AD8B4EED700D0E80E016E030E0217
:104F1D006E000E036E000E046E6BEC23F012000695
:104F2D00C0F6FF07C0F7FF0800F5CF09F0064A07E6
:104F3D002A4BD006C0F6FF07C0F7FF0800F55098C2
:104F4D00EC22F0064A072A06C0F6FF07C0F7FF0855
:104F5D0000F5CF0AF0064A072A0AC008F0800E08AD
:104F6D001608500B6E0C6A0A9E0BD006C0F6FF0792
:104F7D00C0F7FF0800F550A0EC22F0064A072A0002
:104F8D00D00A060A28D8A4F1D70B500C10D8B41C9F
:104F9D00D006C0F6FF07C0F7FF0800F5500B6E0CEA
:104FAD006A064A072A0B280C10D8A405D0010E0C4E
:104FBD006EF40E0B6E00D00BC001F00CC002F003AE
:104FCD006A046A6BEC23F000D009060928D8A4B155
:104FDD00D71200000E0A6E000E0B6E000E0C6E0442
:104FED000E0C6401D058D00CC008F0010E096E08EB
:104FFD002A02D0D8900936082EFCD70950FF0A0591
:10500D006E140ED8EC23F0130E53EC23F0CCC00825
:10501D00F00F0E0816D8B43DD0340E086EF20EE81F
:10502D002EFED7082EFCD7130E53EC23F0CCC00860
:10503D00F00F0E0816D8B42DD00001CC510F0B0A6D
:10504D006E02D00B2A00D0D8900A320A50D8B4067E
:10505D00D0F8D704D0130E53EC23F000D0CCC008F9
:10506D00F00F0E0816D8A4F6D70C50040D800E08BC
:10507D006E000E096EF3500826F45009220B5001F4
:10508D000DF3500824D96EF4500920DA6EDF500567
:10509D00D000D00C2AA4D7000E00D01200F0EC27BF
:1050AD00F04C6E520E4C18D8A41FD0D7EC22F0CF76
:1050BD000E016E000E026E000E046E000E036E00E9
:1050CD000E066E080E056E3CEC23F0D70E016E0039
:1050DD000E026E000E046E000E036E000E066E04C0
:1050ED000E056E3CEC23F03BD083A483B23BD00184
:1050FD000E84EC23F0FCEC29F0000E026E000E0184
:10510D006E81EC22F0000E026E0F0E016E000E0489
:10511D006E3C0E036E7CEC22F0A80E486E7F0E499D
:10512D006E400E4A6E590E4B6EE1EC25F0FF0E02ED
:10513D006E016881EC22F0000E026E280E016E00E9
:10514D000E046E3C0E036E7CEC22F0CC0E486E7F8E
:10515D000E496E400E4A6E590E4B6EE1EC25F00075
:10516D000E6C6E00D012007A50106E116A1050083D
:10517D005C0950800A126E1150800A1258D8B05C2A
:10518D00D07950106E116A10500A5C0B50800A12C3
:10519D006E1150800A1258D8B04FD001D04DD07A30
:1051AD0050106E116AFF0E126EFF0E136E0C50082A
:1051BD0024146E0D500920156E125014261350151F
:1051CD00221050145C1550800A166E1150800A166C
:1051DD0058D8A00FD008C010F009C011F0101E1142
:1051ED001E104A112A7A5010240C6E000E11200D3B
:1051FD006E00D00AC004F008500C24106E10040587
:10520D006E0AC006F0085069EC24F00F50176E0EB0
:10521D00C018F08A8E8A9C07D01750FDEC22F0182A
:10522D0050FDEC22F000D00C06D8A00D060C28F491
:10523D00E10D28D8A4F1D78A8C12007A50106E1186
:10524D006A1050085C0950800A126E1150800A12C3
:10525D0058D8B05CD07950106E116A10500A5C0BA2
:10526D0050800A126E1150800A1258D8B04FD001DA
:10527D00D04DD07950106E116AFF0E126EFF0E13C5
:10528D006E0C500A24146E0D500B20156E12501416
:10529D0026135015221050145C1550800A166E11ED
:1052AD0050800A1658D8A00FD00AC010F00BC011AC
:1052BD00F0101E111E104A112A795010240C6E0088
:1052CD000E11200D6E00D00AC004F008C005F00AC2
:1052DD00500C24106E1004066E085069EC24F00F6B
:1052ED0050176E0EC018F08A8E8A9C07D01750FD8D
:1052FD00EC22F01850FDEC22F000D00C06D8A00DD9
:10530D00060C28F4E10D28D8A4F1D78A8C1200954B
:10531D009C958E959A95988C88E00E0001B96F003A
:10532D0001BA69000E0001BB6F0F0E0001BC6F00CA
:10533D000E0001BD6F000E0001BE6F000E0001BF1B
:10534D006F000E0001C06F000E0001C16F000E0056
:10535D0001C26F180E0001C36F180E0001C46F005B
:10536D000E0001C56F0F0E0001C66F000E0001C7C4
:10537D006F000E0001C86F000E0001C96F000E0016
:10538D0001CA6F000E0001CB6F000E0001CC6F0043
:10539D0001CD69000E0001CE6F400E056E8C980593
:1053AD0050AEEC25F00A0EAEEC25F0180EAEEC2545
:1053BD00F08C888C980550AEEC25F0000EAEEC25E7
:1053CD00F0000E066E0DD00FD00650010DB90EF384
:1053DD0024D96E000EF420DA6EDF50AEEC25F00607
:1053ED002A150E0664F1D78C881200000E026E3657
:1053FD000E016E90EC24F00001CF6F000E026E35A1
:10540D000E016E90EC24F00001D06F000E026E3490
:10541D000E016E90EC24F00001D16F000E026E3380
:10542D000E016E90EC24F00001D26F000E026E3270
:10543D000E016E90EC24F00001D36F000E026E3160
:10544D000E016E90EC24F00001D46F000E026E3050
:10545D000E016E90EC24F00001D56F000E026E3837
:10546D000E016E90EC24F0046E0450066E056A0079
:10547D000E026E370E016E90EC24F0076E0750058C
:10548D0012000E0612040E0524756E000E0620760F
:10549D006EFE0E7524016EFF0E7620026E90EC24CA
:1054AD00F0046EFF0E7524016EFF0E7620026E90D5
:1054BD00EC24F0056E04500001D76F05C0D8F075CF
:1054CD00C0D9F076C0DAF0FC0E7524016EFF0E76B1
:1054DD0020026E90EC24F00001D66F1200F0EC2744
:1054ED00F0646E530E6418D8A434D07250D8B4182A
:1054FD00D0000E096E010E086E000E0B6E010E0A25
:10550D006E000E0D6E030E0C6E000E0F6E030E0E62
:10551D006E000E116E000E106EF0EC2BF0000E17DB
:10552D00D0000E096E010E086E000E0B6E010E0AF4
:10553D006E000E0D6E030E0C6E000E0F6E030E0E32
:10554D006E070E116EE00E106EF0EC2BF0010E7268
:10555D006E3FD04E0E6418D8A412D07250D8B4033A
:10556D00D0000E726E04D00A0E7E18D8A403D0019E
:10557D000E7E6E2BD07E50EBEC37F07E2A29D0526A
:10558D000E6418D8A425D0D7EC22F0010E7E6E0043
:10559D000E726ECF0E016E000E026E000E046E00C6
:1055AD000E036E000E066E080E056E3CEC23F0D752
:1055BD000E016E000E026E000E046E000E036E00E4
:1055CD000E066E040E056E3CEC23F0000E6C6E00A4
:1055DD00D01200070E1724016E000E1820026E0067
:1055ED000E046E080E036E59EC26F001C01FF0027A
:1055FD00C020F0000E236E000E226E5FD0000E252F
:10560D006E000E246E4DD0070E24141D6E000E2557
:10561D00141E6E1D501E10D8B403D0D890213628FC
:10562D00D022C001F023C002F01FC003F020C0043F
:10563D00F0E9EC22F015C01DF016C01EF001501D52
:10564D002602501E2224C001F025C002F0000E04D7
:10565D006E080E036E59EC26F001501D2602501EE9
:10566D00221DC0F6FF1EC0F7FF0800F5CF21F00088
:10567D00D021BE13D024501124086E2550122009BC
:10568D006E225013240A6E235014200B6E1BC00C77
:10569D00F01CC00DF07CEC25F000D0244A252A002A
:1056AD00D01750245C2550800A1D6E1850800A1D9D
:1056BD0058D8A0A9D7224A232A00D01950225C23FA
:1056CD0050800A1D6E1A50800A1D58D8A097D71207
:1056DD0000000EC7B4010E84EC23F094BA04D00080
:1056ED000E116E000E03D0000E116E3C0E106E00EA
:1056FD00D075C0B7F076500001B86F10C004F0112E
:10570D00C005F0B60E066E000E076E030E086EE9AC
:10571D00EC24F0030E1024106E000E1120116E10EB
:10572D00C001F011C002F0C30E036EF9EC23F001BD
:10573D000E1024016E000E1120026E0DC003F0F943
:10574D00EC23F0020E1024016E000E1120026E0EDD
:10575D0050036EF9EC23F0000E056E080E046E5129
:10576D000E066E7F0E076E200E086EE9EC24F00219
:10577D000E84EC23F094BA03D0948A8B8A1FD00048
:10578D000EAB6ED00E0F6ECA0EE82EFED70F2EFC8E
:10579D00D7949E8B9E340E0F6EF20EE82EFED70F11
:1057AD002EFCD78B8E680E0F6EE40EE82EFED70FF3
:1057BD002EFCD700D08B9E8BEC22F000D0500E012A
:1057CD006E000E026E000E036E000E046E6BEC2367
:1057DD00F012007A50126E136A1250085C09508054
:1057ED000A146E1350800A1458D8B0A2D0795012F2
:1057FD006E136A12500A5C0B50800A146E1350809F
:10580D000A1458D8B095D001D093D07A50126E1397
:10581D006AFF0E146EFF0E156E0C500824166E0DD9
:10582D00500920176E1450162615501722125016B7
:10583D005C1750800A186E1350800A1858D8A00EA5
:10584D00D008C012F009C013F0121E131E124A1315
:10585D002A7A5012240C6E000E13200D6E79501200
:10586D006E136AFF0E146EFF0E156E0E500A24167F
:10587D006E0F500B20176E1450162615501722124E
:10588D0050165C1750800A186E1350800A1858D89D
:10589D00A00FD00AC012F00BC013F0121E131E126F
:1058AD004A132A795012240E6E000E13200F6E002B
:1058BD00D00AC004F008500C24126E1204056E0AB2
:1058CD00500E24136E1304066E085069EC24F0116B
:1058DD0050196E10C01AF08A8E8A9C0EC00AF00FF5
:1058ED00C00BF00BBE24D00B5005E10A04D8A01F4D
:1058FD00D001D01DD00CC008F00DC009F009BE12AA
:10590D00D0095005E10804D8A00DD001D00BD01955
:10591D0050FDEC22F01A50FDEC22F00806D8A0093B
:10592D0006EDD7F5D70A06D8A00B06DBD7E3D78A45
:10593D008C1200476E0A0E4718D8A40CD0000E6DBD
:10594D006EF90EF66E730EF76E0800F5507D02F3CC
:10595D00506E26AED00D0E4718D8B4AAD0F70EF65D
:10596D006E730EF76E0800F5CF41F04150475CD8CD
:10597D00A09FD0F80EF66E730EF76E47500900F526
:10598D005CD8A096D0F70EF66E730EF76E0800F584
:10599D005000084724426E4250070DF50EF66E7307
:1059AD000EF76EF3500900F524456EF4500900F51D
:1059BD0020466E020E45243A6E000E46203B6E3A8E
:1059CD00C0F6FF3BC0F7FF0800F5CF44F0030E45CE
:1059DD00243A6E000E46203B6E3AC0F6FF3BC0F7F0
:1059ED00FF0800F5CF43F04450D8B452D04350D8FF
:1059FD00B44FD0050E45243A6E000E46203B6E3A4C
:105A0D00C0F6FF3BC0F7FF0800F5503F6E406A3F00
:105A1D00BE40067C50D8B42BD07A503A6E3B6A44C7
:105A2D00503F24016E000E4020026E7DC003F00435
:105A3D006AE9EC22F06D503C6E3D6A01503C260245
:105A4D00503D223A503C5C3D50800A3E6E3B5080AA
:105A5D000A3E58D8A00CD0000E6D6EF90EF66E737E
:105A6D000EF76E0800F5507D02F3506E2600D06DD6
:105A7D00C01BF01C6A6EC01DF01E6A47C01FF07778
:105A8D00C020F078C021F07DC022F060EC2DF00038
:105A9D00D0040E45243A6E000E46203B6E3AC0F6F9
:105AAD00FF3BC0F7FF0800F5507D02F3506D260057
:105ABD00D01200F70EF66E730EF76E0800F5501F3C
:105ACD005E1F50070DF50EF66E730EF76EF350094F
:105ADD0000F524386EF4500900F520396EF30EF6FA
:105AED006E730EF76E0900F5CF28F00A00F5CF2979
:105AFD00F038C0F6FF39C0F7FF0900F5CF2EF00AD8
:105B0D0000F5CF2FF0020E3824236E000E3920241D
:105B1D006E23C0F6FF24C0F7FF0800F5CF30F00369
:105B2D000E3824236E000E3920246E23C0F6FF2478
:105B3D00C0F7FF0800F5CF31F0040E3824236E00B6
:105B4D000E3920246E23C0F6FF24C0F7FF0800F5A0
:105B5D00CF27F0050E3824236E000E3920246E2336
:105B6D00C0F6FF24C0F7FF0800F5CF34F0060E385D
:105B7D0024236E000E3920246E23C0F6FF24C0F7B7
:105B8D00FF0800F5CF35F0000E326E010E22640ACB
:105B9D00D034502A6E2B6A2ABE2B0635502C6E2D12
:105BAD006A2CBE2D06000E376E7DD0000E366E743B
:105BBD00D0322A3204236E070E2316D8A410D02E0D
:105BCD00502824236E2F502920246E23C0F6FF2445
:105BDD00C0F7FF0800F5CF33F02E4A2F2A00D0333F
:105BED00AE57D02204D8A425D0365034C023F0248B
:105BFD006A23BE24062326000E24221B50232408CC
:105C0D006E1C502420096E375035C025F0266A25AC
:105C1D00BE26062526000E26221D5025240A6E1EA0
:105C2D005026200B6E20C00CF021C00DF07CEC2511
:105C3D00F02FD036502A24016E000E2B20026E223A
:105C4D00C003F0046AE9EC22F01B500124086E1C1D
:105C5D00500220096E37502C24016E000E2D2002AB
:105C6D006E22C003F0046AE9EC22F01D5001240AF3
:105C7D006E1E5002200B6E22C00CF00D6A22C00E5B
:105C8D00F00F6A20C010F021C011F0F0EC2BF000E5
:105C9D00D0D8903336362A00D03050365CD8A08814
:105CAD00D7372A00D03150375CD8A07FD7120015D6
:105CBD00C01AF016C01BF01A1E1B1E1A4A1B2A0111
:105CCD000E1A24226E000E1B20236E000E1F6E0175
:105CDD000E1E6E15C01AF016C01BF0D8901A361B8A
:105CED00361A1E1B1E1A4A1B2A1AC020F01BC02171
:105CFD00F0000E256E000E246E15C026F016C0277E
:105D0D00F0F3D023BE0BD02606D8A02706020E2016
:105D1D0026000E21222050222621502322244A25FE
:105D2D002A020E1E26000E1F221E5022261F502351
:105D3D002217A425D024501124086E2550122009B5
:105D4D006E265013240A6E275014200B6E18C00CAB
:105D5D00F019C00DF07CEC25F026501124086E27AB
:105D6D00501220096E245013240A6E255014200B56
:105D7D006E18C00CF019C00DF07CEC25F000D0179A
:105D8D00A235D024501124086E25501220096E26FC
:105D9D00C01AF027C01BF01A1E1B1E1A4A1B2A130D
:105DAD00501A240A6E14501B200B6E18C00CF019DB
:105DBD00C00DF07CEC25F026501124086E275012F2
:105DCD0020096E24C01AF025C01BF01A1E1B1E1AC6
:105DDD004A1B2A13501A240A6E14501B200B6E18DE
:105DED00C00CF019C00DF07CEC25F000D017A635D5
:105DFD00D026C01AF027C01BF01A1E1B1E1A4A1BF4
:105E0D002A11501A24086E12501B20096E245013AB
:105E1D00240A6E255014200B6E18C00CF019C00DFD
:105E2D00F07CEC25F024C01AF025C01BF01A1E1BC7
:105E3D001E1A4A1B2A11501A24086E12501B2009D3
:105E4D006E265013240A6E275014200B6E18C00CAA
:105E5D00F019C00DF07CEC25F000D017A045D02630
:105E6D00C01AF027C01BF01A1E1B1E1A4A1B2A113E
:105E7D00501A24086E12501B20096E24C01CF025E8
:105E8D00C01DF01C1E1D1E1C4A1D2A13501C240A69
:105E9D006E14501D200B6E18C00CF019C00DF07C47
:105EAD00EC25F024C01AF025C01BF01A1E1B1E1A7B
:105EBD004A1B2A11501A24086E12501B20096E26F7
:105ECD00C01CF027C01DF01C1E1D1E1C4A1D2A13D0
:105EDD00501C240A6E14501D200B6E18C00CF019A6
:105EED00C00DF07CEC25F000D02650245C255080B0
:105EFD000A1A6E2750800A1A58D8A003D7120030FC
:105F0D00502824086E31502920096E2AC00AF02B22
:105F1D00C00BF030C034F031C035F0D89034363588
:105F2D0036341E351E344A352A2C5034240C6E2D31
:105F3D005035200D6E32C00EF033C00FF0BAEC2884
:105F4D00F030502824086E31502920096E2E502A29
:105F5D0024346E2F502B20356EFF0E34240A6EFF25
:105F6D000E35200B6E30C036F031C037F0D890367C
:105F7D00363736361E371E364A372A2C5036240C05
:105F8D006E2D5037200D6E32C00EF033C00FF0BAAB
:105F9D00EC28F028C008F029C009F030502A240A56
:105FAD006E31502B200B6E30C034F031C035F0D82F
:105FBD009034363536341E351E344A352A2E50343B
:105FCD00240C6E2F5035200D6E32C00EF033C00FE5
:105FDD00F024EC29F02C502824346E2D5029203536
:105FED006EFF0E3424086EFF0E3520096E30502AD8
:105FFD00240A6E31502B200B6E30C036F031C03775
:10600D00F0D89036363736361E371E364A372A2E9A
:10601D005036240C6E2F5037200D6E32C00EF033DB
:10602D00C00FF024EC29F030502824116E31502986
:10603D0020126E30502A24136E31502B20146E30E6
:10604D00C015F031C016F0010E176E32C018F033C6
:10605D00C019F05EEC2EF0010E3024346E000E31BE
:10606D0020356E341E351E344A352A2850342629E3
:10607D005035222C503424116E2D503520126E3097
:10608D00502A24136E31502B20146E30C015F03170
:10609D00C016F0020E176E32C018F033C019F05E44
:1060AD00EC2EF0010E3024346E000E3120356E349E
:1060BD001E351E344A352A28503426295035222CB7
:1060CD00503424116E2D503520126E010E302436B1
:1060DD006E000E3120376E361E371E364A372A2A8D
:1060ED005036262B5037222E503624136E2F503714
:1060FD0020146E30C015F031C016F0040E176E323C
:10610D00C018F033C019F05EEC2EF0305028241179
:10611D006E31502920126E010E3024346E000E3176
:10612D0020356E341E351E344A352A2A5034262B1E
:10613D005035222E503424136E2F503520146E30CE
:10614D00C015F031C016F0080E176E32C018F033BE
:10615D00C019F05EEC2EF01200F0EC27F05D6E2110
:10616D00D17450D8B418D0000E096E010E086E000F
:10617D000E0B6E010E0A6E000E0D6E030E0C6E00F0
:10618D000E0F6E030E0E6E000E116E000E106EF0E1
:10619D00EC2BF0000E17D0000E096E010E086E00EC
:1061AD000E0B6E010E0A6E000E0D6E030E0C6E00C0
:1061BD000E0F6E030E0E6E070E116EE00E106EF0CA
:1061CD00EC2BF0010E746EF8D07450D8B405D004D9
:1061DD000E6C6E000E746E03D0020E6C6E00D0004D
:1061ED000E1C6E000E1B6E12EC23F0000E296E2895
:1061FD000E286E000E2B6E3C0E2A6E000E2D6E506C
:10620D000E2C6E000E2F6E2D0E2E6E000E316E05A5
:10621D000E306E000E336E1F0E326E86EC2FF000B8
:10622D000E026E200E016E000E046E2A0E036E7CA1
:10623D00EC22F0000E026E1F0E016E81EC22F001B9
:10624D000EB6EC22F0BC0E486E7F0E496E400E4A23
:10625D006E590E4B6EE1EC25F0000E026E340E0100
:10626D006E000E046E5A0E036E7CEC22F0FF0E02D1
:10627D006E016881EC22F0000E4C6E000E4D6E002A
:10628D000E4E6E000E4F6E040E506E400E516E5936
:10629D000E526EF1EC26F090D07450D8B461D0004F
:1062AD000E1C6E000E1B6E12EC23F0000E296E28D4
:1062BD000E286E000E2B6E3C0E2A6E000E2D6E50AB
:1062CD000E2C6E000E2F6E2D0E2E6E000E316E05E5
:1062DD000E306E000E336E1F0E326E86EC2FF000F8
:1062ED000E026E1F0E016E81EC22F0010EB6EC2235
:1062FD00F0000E026E4B0E016E000E046E2A0E03A0
:10630D006E7CEC22F094C048F095C049F0400E4AE6
:10631D006E590E4B6EE1EC25F0020EB6EC22F0003C
:10632D000E026E340E016E000E046E600E036E7C56
:10633D00EC22F0FF0E026E016881EC22F00001CF1D
:10634D00514C6E4D6A4E6A4F6A020E506E400E51A0
:10635D006E590E526EF1EC26F0000E746E060E1F85
:10636D00D0CF0E016E000E026E000E046E000E03F5
:10637D006E000E066E080E056E3CEC23F0D70E0176
:10638D006E000E026E000E046E000E036E000E0601
:10639D006E040E056E3CEC23F0D7EC22F0000E6C73
:1063AD006E0BD05D504D0AD8B40FD71F0AD8B474F8
:1063BD00D7010AD8B4D5D600D01200110E176E0031
:1063CD000E186E4FD1250E1D18D8B409D00DC0D999
:1063DD00FF0EC0DAFF1DC0DFFF0D4A0E2A42D100AD
:1063ED000E196E0FC0F6FF10C0F7FF0800F5502E06
:1063FD000AD8A421D00F4A102A000E1C6E10D00FFF
:10640D00C0F6FF10C0F7FF0800F5CF15F01C500ABD
:10641D000DF3501524D00F1C6E0F4A102A00D00F0B
:10642D00C0F6FF10C0F7FF0800F550C6EC22F0D8FB
:10643D00A00CD0E5D70AD0000E1C6E07D020D11FBE
:10644D00D000D0198E1CD00DD11AD00FC0F6FF1070
:10645D00C0F7FF0F4A102A0800F5CF1DF01D5000A0
:10646D000AD8B40DD1580AD8B4ECD73C0AD8B40721
:10647D00D00D0AD8B404D0110AD8B4E3D7F2D0198C
:10648D00BE15D017C0D9FF18C0DAFFDECF1AF0DD68
:10649D00CF1BF0020E1726000E18221BAE14D003D0
:1064AD000E19121A6C1B1ED8B01B2A0DD017C0D98D
:1064BD00FF18C0DAFFDECF1AF0DDCF1BF0020E178A
:1064CD0026000E182200D01C50D8A440D01A501B04
:1064DD0010D8A43CD01C2A3AD0010E1D6E050E1DFD
:1064ED0018D8B43DD001D03BD01D50020DE10EF3B4
:1064FD0024F66E730EF420F76E0900F5501A5C0940
:10650D0000F5501B58D8A02BD001D029D01D2AE65C
:10651D00D726D0010E1D6E040E1D18D8B420D00143
:10652D00D01ED01D50020DEB0EF324F66E730EF43B
:10653D0020F76E0900F5501A5C0900F5501B58D86C
:10654D00A00ED001D00CD01D2AE6D709D01950804D
:10655D000B000AD8B4C1D7800AD8B4DBD700D01D40
:10656D0050800A156E1C50800A155CD8B003D01CE3
:10657D00C01DF00BD01C50800A156E1D50800A15E1
:10658D005CD8B003D01DC01CF000D019C015F003AD
:10659D000E1516D8B460D00DC0D9FF0EC0DAFF2D80
:1065AD000EDF6E56D058D045D01C50020DE10EF3C3
:1065BD0024F66E730EF420F76E0900F5CF03F00A82
:1065CD0000F5CF04F01AC001F01BC002F0BBEC24A3
:1065DD00F001C008F002C009F0000E0B6E0A0E0AA1
:1065ED006E1DEC24F00850300F1D6E2CD01AC0011A
:1065FD00F01BC002F01C50020DEB0EF324F66E736F
:10660D000EF420F76E0900F5CF03F00A00F5CF0464
:10661D00F0BBEC24F001500F0B166E1650010D7EE1
:10662D000EF324F66E7F0EF420F76E0800F5CF1DE5
:10663D00F009D01950800B000AD8B4B6D7800AD80B
:10664D00B4D5D700D00DC0D9FF0EC0DAFF1DC0DF05
:10665D00FF0D4A0E2A00D01C061C28D8B402D0E922
:10666D00D700D00FC0F6FF10C0F7FF0F4A102A0851
:10667D0000F5CF1DF01D50D8B402D0A4D600D00D1A
:10668D00C0D9FF0EC0DAFF000EDF6E00D01200F091
:10669D00EC27F0636E6350D8B471D12F0E63645D37
:1066AD00D03A0E63605AD0000E026E340E016E00A9
:1066BD000E046E5A0E036E7CEC22F0000E026E007C
:1066CD000E016E81EC22F069C04CF06AC04DF04EA7
:1066DD006A4F6A040E506E400E516E590E526EF195
:1066ED00EC26F069C05DF06AC05EF05D3A5E3AF08E
:1066FD000E5E165D500F0B5E12F00E5D16D00E5F26
:10670D006EFF0E606E6350616E626A5F506126604F
:10671D005062225D506110696E5E5062106A6E00AB
:10672D000E026E340E016E000E046E5A0E036E7C58
:10673D00EC22F0FF0E026E016881EC22F069C04C74
:10674D00F06AC04DF04E6A4F6A040E506E400E5105
:10675D006E590E526EF1EC26F011D1400E63645D50
:10676D00D0470E63605AD0000E026E340E016E00DB
:10677D000E046E5A0E036E7CEC22F0000E026E00BB
:10678D000E016E81EC22F069C04CF06AC04DF04EE6
:10679D006A4F6A040E506E400E516E590E526EF1D4
:1067AD00EC26F069C05DF06AC05EF05D3A5E3AF0CD
:1067BD000E5E165D500F0B5E12F00E5D16C90E5F6C
:1067CD006EFF0E606E6350616E626A5F506126608F
:1067DD005062225D506110696E5E5062106A6E00EB
:1067ED000E026E340E016E000E046E5A0E036E7C98
:1067FD00EC22F0FF0E026E016881EC22F069C04CB4
:10680D00F06AC04DF04E6A4F6A040E506E400E5144
:10681D006E590E526EF1EC26F0B1D04E0E6318D8B3
:10682D00A485D06A5004E1500E695CD8A078D008D8
:10683D000E6A5CD8B074D069C065F06AC066F001AC
:10684D000E84EC23F0000E6A6E000E696E65C001B9
:10685D00F066C002F090EC24F06F6E000E1C6E001E
:10686D000E1B6E12EC23F0000E296E280E286E0002
:10687D000E2B6E3C0E2A6E000E2D6E500E2C6E00E1
:10688D000E2F6E2D0E2E6E000E316E050E306E001B
:10689D000E336E1F0E326E86EC2FF0000E026E1F41
:1068AD000E016E81EC22F0010EB6EC22F0000E020C
:1068BD006E340E016E000E046E2A0E036E7CEC22F9
:1068CD00F065C04CF066C04DF04E6A4F6A040E5034
:1068DD006E400E516E590E526EF1EC26F0020EB650
:1068ED00EC22F0000E026E340E016E000E046E608E
:1068FD000E036E7CEC22F0FF0E026E016881EC221D
:10690D00F06F504C6E4D6A4E6A4F6A020E506E40DB
:10691D000E516E590E526EF1EC26F0030E05D0019C
:10692D000E41EC27F025D0000E6C6E28D0520E6370
:10693D0018D8A424D0D7EC22F0CF0E016E000E0291
:10694D006E000E046E000E036E000E066E080E0530
:10695D006E3CEC23F0D70E016E000E026E000E049D
:10696D006E000E036E000E066E040E056E3CEC23DB
:10697D00F0000E6A6E000E696ED6D700D01200F0D0
:10698D00EC27F0636E6350D8B474D12F0E63645D41
:10699D00D03A0E63605AD0000E026E340E016E00B6
:1069AD000E046E5A0E036E7CEC22F0000E026E0089
:1069BD000E016E81EC22F067C04CF068C04DF04EB8
:1069CD006A4F6A040E506E400E516E590E526EF1A2
:1069DD00EC26F067C05DF068C05EF05D3A5E3AF09F
:1069ED000E5E165D500F0B5E12F00E5D16D00E5F33
:1069FD006EFF0E606E6350616E626A5F506126605D
:106A0D005062225D506110676E5E506210686E00BC
:106A1D000E026E340E016E000E046E5A0E036E7C65
:106A2D00EC22F0FF0E026E016881EC22F067C04C83
:106A3D00F068C04DF04E6A4F6A040E506E400E5114
:106A4D006E590E526EF1EC26F014D1400E63645D5A
:106A5D00D0470E63605AD0000E026E340E016E00E8
:106A6D000E046E5A0E036E7CEC22F0000E026E00C8
:106A7D000E016E81EC22F067C04CF068C04DF04EF7
:106A8D006A4F6A040E506E400E516E590E526EF1E1
:106A9D00EC26F067C05DF068C05EF05D3A5E3AF0DE
:106AAD000E5E165D500F0B5E12F00E5D16C90E5F79
:106ABD006EFF0E606E6350616E626A5F506126609C
:106ACD005062225D506110676E5E506210686E00FC
:106ADD000E026E340E016E000E046E5A0E036E7CA5
:106AED00EC22F0FF0E026E016881EC22F067C04CC3
:106AFD00F068C04DF04E6A4F6A040E506E400E5154
:106B0D006E590E526EF1EC26F0B4D0530E6318D8B8
:106B1D00A434D07350D8B418D0000E096E010E08ED
:106B2D006E000E0B6E010E0A6E000E0D6E030E0C36
:106B3D006E000E0F6E030E0E6E000E116E000E1017
:106B4D006EF0EC2BF0000E17D0000E096E010E0842
:106B5D006E000E0B6E010E0A6E000E0D6E030E0C06
:106B6D006E000E0F6E030E0E6E070E116EE00E1000
:106B7D006EF0EC2BF0010E736E7CD04E0E6318D8B8
:106B8D00A44CD07350D8B475D0685004E1500E6742
:106B9D005CD8A039D0080E685CD8B035D067C06518
:106BAD00F068C066F0000E1C6E000E1B6E12EC231A
:106BBD00F0000E026E0F0E016E000E046E3C0E0301
:106BCD006E7CEC22F0070E026EE00E016E81EC225F
:106BDD00F0010EB6EC22F0A80E486E7F0E496E4005
:106BED000E4A6E590E4B6EE1EC25F065C00DF06648
:106BFD00C00EF06FEC2BF0000E686E000E676E008D
:106C0D000E736E050E08D0010E41EC27F0000E68D4
:106C1D006E000E676E000E6C6E2CD0520E6318D87F
:106C2D00A428D07350D8A425D0D7EC22F0CF0E01D4
:106C3D006E000E026E000E046E000E036E000E0648
:106C4D006E080E056E3CEC23F0D70E016E000E02A1
:106C5D006E000E046E000E036E000E066E040E0521
:106C6D006E3CEC23F0000E6C6E000E686E000E672D
:106C7D006E00D01200F0EC27F05E6E5E50D8B4A31B
:106C8D00D12F0E5E6446D03A0E5E6043D0000E02E8
:106C9D006E340E016E000E046E600E036E7CEC22DF
:106CAD00F0000E026E000E016E81EC22F06F504C62
:106CBD006E4D6A4E6A4F6A020E506E400E516E59FD
:106CCD000E526EF1EC26F06FC05DF05D3AF00E5D88
:106CDD00165E50D00F5D106F6E000E026E340E01F9
:106CED006E000E046E600E036E7CEC22F0FF0E0241
:106CFD006E016881EC22F06F504C6E4D6A4E6A4FFA
:106D0D006A020E506E400E516E590E526EF1EC2607
:106D1D00F05AD1400E5E6446D0470E5E6043D000FF
:106D2D000E026E340E016E000E046E600E036E7C4C
:106D3D00EC22F0000E026E000E016E81EC22F06F5F
:106D4D00504C6E4D6A4E6A4F6A020E506E400E5197
:106D5D006E590E526EF1EC26F06FC05DF05D3AF09B
:106D6D000E5D165E50C90F5D106F6E000E026E3413
:106D7D000E016E000E046E600E036E7CEC22F0FFB1
:106D8D000E026E016881EC22F06F504C6E4D6A4E12
:106D9D006A4F6A020E506E400E516E590E526EF1D0
:106DAD00EC26F011D1530E5E18D8A433D07150D803
:106DBD00B417D0000E096E010E086E000E0B6E0199
:106DCD000E0A6E000E0D6E030E0C6E000E0F6E038E
:106DDD000E0E6E000E116E000E106EF0EC2BF064A8
:106DED00D0000E096E010E086E000E0B6E010E0A1C
:106DFD006E000E0D6E030E0C6E000E0F6E030E0E5A
:106E0D006E070E116EE00E106EF0EC2BF0010E4DB4
:106E1D00D0DAD04E0E5E18D8A4ACD065C001F066A5
:106E2D00C002F06FC003F0F9EC23F07150D8B40735
:106E3D00D0000E6C6E000E716E000E6F6EC4D00021
:106E4D000E026E000E016E81EC22F0010EB6EC22E8
:106E5D00F0000E026E340E016E000E046E2A0E034B
:106E6D006E7CEC22F065C04CF066C04DF04E6A4F62
:106E7D006A040E506E400E516E590E526EF1EC2694
:106E8D00F0654A662A665004E1510E655CD8A0058E
:106E9D00D06528070E6658D8A00AD0010E41EC2700
:106EAD00F0000E6C6E000E6F6E000E716E8CD000C9
:106EBD000E026E1F0E016E81EC22F0000E026E347A
:106ECD000E016E000E046E2A0E036E7CEC22F06530
:106EDD00C04CF066C04DF04E6A4F6A040E506E40C5
:106EED000E516E590E526EF1EC26F0020EB6EC22DA
:106EFD00F0000E026E340E016E000E046E600E0375
:106F0D006E7CEC22F0000E026E000E016E81EC2202
:106F1D00F06F504C6E4D6A4E6A4F6A020E506E40C5
:106F2D000E516E590E526EF1EC26F065C001F066F1
:106F3D00C002F090EC24F06F6E000E026E340E0164
:106F4D006E000E046E600E036E7CEC22F0FF0E02DE
:106F5D006E016881EC22F06F504C6E4D6A4E6A4F97
:106F6D006A020E506E400E516E590E526EF1EC26A5
:106F7D00F02AD0520E5E18D8A426D07150D8A42372
:106F8D00D0D7EC22F0000E6F6ECF0E016E000E0208
:106F9D006E000E046E000E036E000E066E080E05DA
:106FAD006E3CEC23F0D70E016E000E026E000E0447
:106FBD006E000E036E000E066E040E056E3CEC2385
:106FCD00F0000E6C6E00D01200636E000E1C6E0091
:106FDD000E1B6E12EC23F0000E026E1F0E016E8161
:106FED00EC22F0010EB6EC22F0070E636060D000CB
:106FFD000E296E280E286E000E2B6E3C0E2A6E008A
:10700D000E2D6E500E2C6E000E2F6E2D0E2E6E0050
:10701D000E316E050E306E000E336E1F0E326E8603
:10702D00EC2FF0000E026E4B0E016E000E046E2A58
:10703D000E036E7CEC22F06350020D940EF324D9F6
:10704D006E000EF420DA6EDECF48F0DDCF49F04051
:10705D000E4A6E590E4B6EE1EC25F0020EB6EC2287
:10706D00F0000E026E340E016E000E046E600E0303
:10707D006E7CEC22F0FF0E026E016881EC22F06353
:10708D0050010DCF0EF324D96E000EF420DA6EDF11
:10709D00505D6E5D504C6E4D6A4E6A4F6A020E50D9
:1070AD006E400E516E590E526EF1EC26F091D107D5
:1070BD000E6318D8A41ED1000E026E0F0E016E00C5
:1070CD000E046E2A0E036E7CEC22F0C20E486E7F0B
:1070DD000E496E400E4A6E590E4B6EE1EC25F000D6
:1070ED000E026E280E016E000E046E2A0E036E7CCB
:1070FD00EC22F0FD0E486E7F0E496E400E4A6E5921
:10710D000E4B6EE1EC25F0000E026E410E016E008D
:10711D000E046E2A0E036E7CEC22F0E80E486E7F94
:10712D000E496E400E4A6E590E4B6EE1EC25F00085
:10713D000E026E690E016E000E046E2A0E036E7C39
:10714D00EC22F0EF0E486E7F0E496E400E4A6E59DE
:10715D000E4B6EE1EC25F0000E026E820E016E00FC
:10716D000E046E2A0E036E7CEC22F0E90E486E7F43
:10717D000E496E400E4A6E590E4B6EE1EC25F0FF36
:10718D000E026E016881EC22F0000E026E0F0E01F0
:10719D006E000E046E600E036E7CEC22F0635001E7
:1071AD000DCF0EF324D96E000EF420DA6E0001DF40
:1071BD00AE02D0010E01D0000E4C6E4D6A4E6A4FDC
:1071CD006A0A0E506E400E516E590E526EF1EC263B
:1071DD00F0000E026E280E016E000E046E600E039E
:1071ED006E7CEC22F06350010DCF0EF324D96E00AE
:1071FD000EF420DA6E0001DFAC02D0010E01D000DA
:10720D000E4C6E4D6A4E6A4F6A0A0E506E400E510C
:10721D006E590E526EF1EC26F0000E026E480E0104
:10722D006E000E046E600E036E7CEC22F063500156
:10723D000DCF0EF324D96E000EF420DA6E0001DFAF
:10724D00A802D0010E01D0000E4C6E4D6A4E6A4F51
:10725D006A0A0E506E400E516E590E526EF1EC26AA
:10726D00F0000E026E690E016E000E046E600E03CC
:10727D006E7CEC22F06350010DCF0EF324D96E001D
:10728D000EF420DA6E0001DFA402D0010E01D00051
:10729D000E4C6E4D6A4E6A4F6A0A0E506E400E517C
:1072AD006E590E526EF1EC26F0000E026E820E013A
:1072BD006E000E046E600E036E7CEC22F0635001C6
:1072CD000DCF0EF324D96E000EF420DA6E0001DF1F
:1072DD00A002D0010E01D0000E4C6E4D6A4E6A4FC9
:1072ED006A0A0E506E400E516E590E526EF1EC261A
:1072FD00F06FD0070E63646CD0000E296E280E2837
:10730D006E000E2B6E3C0E2A6E000E2D6E500E2C46
:10731D006E000E2F6E2D0E2E6E000E316E050E3080
:10732D006E000E336E1F0E326E86EC2FF0000E02C5
:10733D006E480E016E000E046E2A0E036E7CEC225A
:10734D00F06350020D940EF324D96E000EF420DA82
:10735D006EDECF48F0DDCF49F0400E4A6E590E4B30
:10736D006EE1EC25F0000E026E340E016E000E047F
:10737D006E5A0E036E7CEC22F0FF0E026E016881D8
:10738D00EC22F0F00E5D6EFF0E5E6E63505F6E6070
:10739D006AD8905F3660365D505F265E506022D7AA
:1073AD000E5F24D96E000E6020DA6EDECF61F0DD47
:1073BD00CF62F061C04CF062C04DF04E6A4F6A046E
:1073CD000E506E400E516E590E526EF1EC26F000BD
:1073DD00D012000001000A006400E803102701002C
:1073ED00100000010010FA73BC7A207E18FFFFFF19
:1073FD00F666606F60E7E76242424242118730C62F
:10740D0018C331FFFFF998330660CC7FEFFC660C93
:10741D00C3986304400C0300C0FE7F9C660980780E
:10742D000FE07F03E0F87FFBFC0C0300C030381F3A
:10743D000C4210C41F039C3C7F33E08C2108C3E039
:10744D00703E1FC66180700C0783EEDFB3CC73FEF8
:10745D007F80FD249039DCE67318C6318C318E3176
:10746D00C4E71CE31C6318C63198CE67100C0300EB
:10747D00C3B7FFDFE1E0FC330CC00600600600601F
:10748D00060FFFFFF06006006006006006003B9CE3
:10749D00CE6200FFFFFFFF800040301C070380E03D
:1074AD00301C060380C070180E0301C060380E0139
:1074BD00001E0FC61B87C0F03C0F03C0F03C0F87AA
:1074CD00618FC1E01C0F0FC3B00C0300C0300C0363
:1074DD0000C0300C3FFFFC1F1FEE1F83C0C0703873
:1074ED001E0F0783C1E3F0FFFFFC3F0FF187006024
:1074FD000C0383E07C01C00C01803C0FFF9FC00793
:10750D000783C3E1B1D8CCC6E37FFFE061F8FC7F10
:10751D009FE60180601F87F98600C0300C03C1BF54
:10752D00E7E007C7F3C1C060380EF3FEF1F83E0F78
:10753D008371CFE1F0FFFFFC1F07018060380C0362
:10754D0001C060180E0300C01E1FEE1F03C0F036F1
:10755D0019FE7FB87C0F03E1DFE3F03E1FCE3B0742
:10756D00C1F07E3DFF3DC070180E0F3F8F80FF8034
:10757D0000FF8077700000766CC88000300F03E04C
:10758D00F83E0F803E00F803E00F0020FFFFFF00E4
:10759D000000000FFFFFF0600F803E00F803E01FBA
:1075AD0007C1F07C0F0040007C7FB0F830181C3C08
:1075BD003C180800070381C01E07F1C7306C0D870A
:1075CD00B3F6E6D8DB1B7367FC7F8030030071C711
:1075DD00F87C003F807F801F007600EE018C07183D
:1075ED000E381FF07FF0C06180CFC7FF8FC0FFC77F
:1075FD00FF0C1C6063031838FF87FE303980CC0602
:10760D00607FFF7FF00FF3FF707603C03C00C00C6E
:10761D0000C00C006037073FF0FCFF0FFC60E60672
:10762D0060360360360360360360760EFFCFF8FFD9
:10763D00F7FF8C0C60631B18C0FE07F031818CCCFA
:10764D0006603FFFFFFCFFFFFFCC0660331998C0BB
:10765D00FE07F031818C0C00600FF07F800FF1FF81
:10766D009C1CC06C03600300187FC3FE01B80CE0C6
:10767D00E3FF07E07CF9F3E3030C0C3030C0C3FFEC
:10768D000FFC3030C0C3030C0CFCFFF3F0FFFFF018
:10769D00C0300C0300C0300C0300C030FFFFF00FF2
:1076AD00F87FC03001800C0060031818C0C606308A
:1076BD0031C30FF81F00FCFBF3E30E0C703380FC9D
:1076CD0003F00FE039C0C3030E0C18FC7FF0F0FF80
:1076DD000FF01801801801801801801831831831BE
:1076ED0083FFFFFFF03FC0F7879E1E7CF9B3E6FDD9
:1076FD0099F667998E66319806FCFFF3F0F1FFCF8E
:10770D00CF0C7863E31B18DCC67631B18F8C3C61EE
:10771D00E7E73F180F03FC70E606E07C03C03C036F
:10772D00C03E0760670E3FC0F0FF8FFE3073033021
:10773D0033033073FE3F8300300300FF0FF00F0360
:10774D00FC70E606E07C03C03C03C03E0760670E9C
:10775D003FC1F01833FF3FE0FF83FF83070C0C3070
:10776D0030C1C3FE0FF031E0C383070C0CFE3FF8B0
:10777D00703FDFFE1F03C0F807E07E01F03C0F876E
:10778D00FFBFC0FFFFFFC63C63C63C63060060063B
:10779D0000600600603FC3FCFFFFFF606606606689
:1077AD000660660660660660639C1FC0F0FC3FFCC9
:1077BD003F300C381C18181C381C380E700E700F0A
:1077CD006007E007E003C003C0FCFFF3F601DCC671
:1077DD007799DE67798DFE3FF8F3E3CF8F3C3870F4
:1077ED00E1C0F8FBE3E3860F381FC03E007003E0F5
:1077FD000F8077038E1E1CFCFFF3F0F9FF9F30C343
:10780D009C1981F80F00600600600600603FC3FC04
:10781D00FFBFEC3B0CC63380C06038CC360F03FF86
:10782D00FFF0FFF18C6318C6318C6318C7FE403032
:10783D000E0180700C0380601C0300E0180700C06F
:10784D00380E01C0700C01FFC6318C6318C6318C27
:10785D00631FFE040301E0FC7B9C7E1F03FFFFFF03
:10786D00F0CE733F07F800C00C1FC7FC60CC0CC1F5
:10787D00CFFF3FF0F007800C0060037C1FF8F1C7CD
:10788D0007301980CC066073C77FFBDF001FB3FF85
:10789D0070FE07C03C00C00C007077FF1FC001E0F8
:1078AD000F001800C1F63FF1C79C1CC066033019CC
:1078BD0081C71E3FFC7DE01F83FC70EE07FFFFFFBD
:1078CD00E00E007073FF1FC007C3FC600C0FFDFFBF
:1078DD008600C0180300600C0181FFBFF01F79FF07
:1078ED00DC7981CC066033019C1C71E1FF07D80067
:1078FD00C00600707F03F0F003C003000C0037C01A
:10790D00FF83C70C0C3030C0C3030C0C3033F3FFB6
:10791D00CFC00600C0003F07E00C0180300600C05C
:10792D0018030FFFFFC0060600FFFF030303030349
:10793D0003030303030307FEFCF007800C00600341
:10794D003F19F8DE07E03E01F00FC06F031C78FF12
:10795D00C7E07E0FC0180300600C0180300600C028
:10796D0018030061FFFFF8FEF1FFF1CE6318C63179
:10797D008C6318C6318C6319F7BFEF7877C1FF831D
:10798D00C70C0C3030C0C3030C0C3033F1FFC7C033
:10799D001F83FC70EE07C03C03C03E0770E3FC1F65
:1079AD0080F7E3FFC3C38E07300CC03300CE073C16
:1079BD0038FFC37E0C003000C00FE03F801FBCFFBE
:1079CD00F70F381CC03300CC03381C70F0FFC1FB1F
:1079DD00000C003000C01FC07F79E7FF1F31C018B9
:1079ED000180180180180FFCFFC03F9FFE1F82FE13
:1079FD001FE0FF03E0FFFFF0300600C07FEFFC60EB
:107A0D000C0180300600C01871FE1F00F1F78F8C3D
:107A1D000C6063031818C0C60638F0FFC3EEFCFFF8
:107A2D00F3F3870E1C1C607380EC03F007801E00BF
:107A3D007800F87FE1F7398CE637B0FFC3FF07BC5C
:107A4D001CF0738186007CF9F3E3CF07F80FC01E9D
:107A5D0000FC07383873F3FFCFC0F9FF9F70E30CBC
:107A6D0039C1981981F80F00F00600600E00C0FFB3
:107A7D000FF07FCFF98E3380701C0701C670FFFFAA
:107A8D00FF800E3C60C183060C39E3C0C183060C38
:107A9D00183C38FFFFFFFFF0E1C0C183060C183022
:107AAD003C7983060C1831E3803C37E767E61C0010
:107ABD000000000E00010000040F0E05F208000882
:107ACD00070E03F30F000B120E02F128000A140E1D
:107ADD0002F041000A0F0E02F254000A0D0E02F4DC
:107AED00650003070E05F3680005130E06F274001A
:107AFD0005130E03F280000A0A0E02F28D000C0D22
:107B0D000E01F4A10005070E04FEA6000C020E01E5
:107B1D00F9A90003030E05FEAB000A140E02F0C412
:107B2D00000A0F0E02F2D7000A0F0E02F2EA000A47
:107B3D000F0E02F2FD000B0F0E01F21201090E0ED7
:107B4D0002F322010A0F0E02F235010A0F0E02F2A4
:107B5D0048010A0F0E02F25B010A0F0E02F26E01CE
:107B6D000A0F0E03F28101030B0E05F68601040FB9
:107B7D000E04F68E010C0B0E01F59F010C070E0184
:107B8D00F7AA010C0B0E01F5BB01090E0E03F3CB89
:107B9D00010B130E02F2E6010F0E0EFFF301020DA3
:107BAD000E0E00F318020C0E0E01F32D020C0E0E2C
:107BBD0001F342020D0E0E00F359020D0E0E00F3ED
:107BCD0070020D0E0E01F387020E0E0E00F3A002D1
:107BDD000A0E0E02F3B2020D0E0E01F3C9020E0EC5
:107BED000E00F3E2020C0E0E01F3F7020E0E0E0064
:107BFD00F310030D0E0E00F327030C0E0E01F33CD4
:107C0D00030C0E0E00F351030C110E01F36B030E5A
:107C1D000E0E00F384030A0E0E02F396030C0E0EE5
:107C2D0001F3AB030C0E0E01F3C003100E0EFFF3A8
:107C3D00DC030E0E0E00F3F5030E0E0E00F30E0414
:107C4D000C0E0E01F323040A0E0E02F33504051378
:107C5D000E06F241040A140E02F05A0405130E0327
:107C6D00F266040A080E02F170040E020E0004748E
:107C7D000404040E04F176040C0B0E01F687040DBA
:107C8D000F0E00F2A0040C0B0E01F6B1040D0F0E39
:107C9D0001F2CA040C0B0E01F6DB040B0F0E02F2FF
:107CAD00F0040D100E01F60A050E0F0E00F225055B
:107CBD000B0E0E01F3390508130F03F34C050D0FD1
:107CCD000E01F265050B0F0E01F27A050F0B0E007A
:107CDD00F68F050E0B0E00F6A3050C0B0E01F6B478
:107CED00050E100E00F6D0050E100E00F6EC050C6C
:107CFD000B0E01F6FD050A0B0E02F60B060B0E0E12
:107D0D0001F31F060D0B0E00F631060E0B0E00F6DD
:107D1D0045060E0B0E00F659060E0B0E00F66D06FF
:107D2D000C100E01F685060B0B0E01F695060713CA
:107D3D000E03F2A60602130E06F2AB0607130E048F
:107D4D00F2BC060C040E01F9FFFFFFFFFFFFFFFF62
:107D5D00FFFFFFFFFFFFFFFFFFFFFFFFFFFFFFFF26
:107D6D00FFFFFFFFFFFFFFFFEFFFFFFFFFFFFFFF26
:107D7D00FFFFFFFFFFFFE7FFFFFFFFFFFFFFFFFF1E
:107D8D00FFFFFFFFE7FFFFFFFFFFFFFFFFFFFFFF0E
:107D9D00FFFFCFFFFFFFFFC0FFFFFFFFFFFFFFFF55
:107DAD00CFFFFFFFFE063FFFE00FFE001FFFCFFFDF
:107DBD00FFFFF8039F800FFFF01F81FFCFFFFFFF35
:107DCD00F1FF9FCFFFFFFE7FF87F9FFFFE3FE7FF95
:107DDD009F9FFFFFFE7FFC7F9F8FFC0FCFFF3F3FDD
:107DED00FFFFFC7FFE7F9E0FF8CF8FFC7E3FFFFFD6
:107DFD00FCFFFCFF3CCFF1C7CFF9FC7FFFFFFCFF81
:107E0D00E1FF39CFE7E7CFE3F801FFFFF81C0FFFE4
:107E1D0073CFC7E7EF9FF07C3FFFF801FFFE67DFF1
:107E2D00CFEFE63FFFFF1FFFF98FFFFECF9F9FCFE5
:107E3D00F0FFFFFF9FFFF3C7FFFC8F9FBFCFE0FF5A
:107E4D00FFFF9FFFF3E3FFFC1F3F3F9FCE7FFFFF31
:107E5D003FFFF3F3FFF83F3E7FBF1F3F7FFE7FFFE6
:107E6D00E7F1FFF87F3E7F7E7FBF7FFCFFFFE7F8E6
:107E7D00FFF8FE7EFCFCFFDE7FF9FFFFE7FC3F1104
:107E8D00FE7CF9FCFF9E3FE3FFFFCFFF80F3FE7CFE
:107E9D00E3FC7F3F860FFFFFFFFFFFFFFE7C0FFF21
:107EAD00007FF0FFFFFFFFFFFFFFFFFFFFFFFFFF63
:107EBD00FFFFFFFFFFFFFFFFFFFFFFFFFFFFFFFFC5
:107ECD00FFFFFFFFFFFFFFFFFFFFFFFFFFFFFFFFB5
:107EDD00FFFFFFFFFFFFFFFFFFFFFFFFFFFF0F0193
:107EED0080961180FFB103012C2DB203012C2DB30F
:107EFD0006012C2D012C2DB40107C003A20284C153
:107F0D0001C5C2020A00C3028A2AC4028AEEC50153
:107F1D000E20003601C83A010504E010021C0712BC
:107F2D003732292D29252B3900010310E110031DAE
:107F3D0007062E2C292D2E2E373F00000210138000
:107F4D000A298064223000F52132007323722371D7
:107F5D0023702377210000392237002A3000F1FBEE
:107F6D003E0B3076022A040000007F2B0400000037
:107F7D009F303132333435363738394142434445F9
:107F8D00460053797374656D2072656164792E00B6
:107F9D006F7065726174696F6E210052756E6E69D6
:107FAD006E672E2E2E00616464726573732100411D
:107FBD0044445245535300496E76616C69640044E4
:107FCD006F6E652E00524541445900252E325800E2
:107FDD00252E3458002564000D0A004143005043FE
:107FED0000535000410042004400450048004C0041
:047FFD005A0000FF27
:020000040030CA
:0E000000FF08181EFF8181FF0FC00FE00F40A8
:00000001FF
